:020000040800F2
:1000000098C7002009030008170300081903000817
:100010001B0300081D0300081F0300080000000068
:1000200000000000000000000000000021030008A4
:100030002303000800000000250300082703000830
:1000400029030008290300082903000829030008E0
:1000500029030008290300082903000829030008D0
:1000600029030008290300082903000829030008C0
:1000700029030008290300082903000829030008B0
:1000800029030008290300082903000829030008A0
:100090002903000829030008290300082903000890
:1000A0002903000829030008290300082903000880
:1000B000290300087D7000082903000829030008AF
:1000C0002903000829030008290300082903000860
:1000D000290300082972000829030008B1720008EA
:1000E0002903000829030008290300082903000840
:1000F0002903000829030008290300082903000830
:100100002903000829030008AD700008290300082E
:100110002903000829030008290300089571000835
:1001200029030008290300082903000829030008FF
:1001300029030008290300082903000829030008EF
:1001400029030008290300082903000829030008DF
:1001500029030008290300082903000829030008CF
:1001600029030008290300082903000829030008BF
:1001700029030008290300082903000800000000E3
:10018000290300082903000829030008290300089F
:10019000290300082903000829030008290300088F
:1001A00029030008290300082903000800F002F8C9
:1001B00000F09BF80AA090E8000C82448344AAF166
:1001C0000107DA4501D100F090F8AFF2090EBAE864
:1001D0000F0013F0010F18BFFB1A43F0010318477B
:1001E000ECEB00000CEC0000103A24BF78C878C19A
:1001F000FAD8520724BF30C830C144BF04680C602D
:10020000704700000023002400250026103A28BF74
:1002100078C1FBD8520728BF30C148BF0B60704778
:100220006E2900F07A85702900F0638266290AF051
:10023000BE8065290AF0BB8067290AF0B880612971
:100240000AF0B78003681B0A28BF41F080016929C2
:1002500000F0D481642900F0D181752900F0CE81AD
:100260006F2901F08780782900F02F82E92901F0B9
:100270002180E42901F01E80F52901F01B80EF297F
:1002800001F08480F82900F02E820368DB0928BF82
:1002900041F08001632900F09087732900F0958771
:1002A000E32901F07B85F32901F080850020704768
:1002B0001FB50AF072F89DE8030000F08DFC01F014
:1002C00035FB04000020002109F0EAFC401C6060BE
:1002D0000020002109F0FAFCA0600020002109F0B4
:1002E0000BFDE0601FBD10B510BD01F0B6FF11465B
:1002F000FFF7DEFF08F0C2F902F00AFA03B4FFF7D5
:10030000F2FF03BC07F019F90B48016841F47001D2
:1003100001600A480047FEE7FEE7FEE7FEE7FEE76A
:10032000FEE7FEE7FEE7FEE7FEE7000004480549BA
:10033000034A054B7047000088ED00E0AD0100085E
:100340009847002098C7002098470020704770B554
:10035000064600F025FC056806F10B0020F00704B6
:10036000B4429CBF002070BD2B466A68BAB11068C9
:10037000A04210D304F1080188423CBF5068586085
:1003800007D35168101941601168091B016058605A
:100390001460101D70BD13465268002AE7D1214633
:1003A000284600F005FC0028DED170BD70B504467B
:1003B000051F00F0F5FB0068002C14BF446870BDF9
:1003C000002C18BFAC423CBF20466468F8D30168DB
:1003D0000A18AA4218BF456003D12A68054611448D
:1003E000016028684119A1421CBF6C6070BD616842
:1003F000696021680844286070BD70B50D460646E6
:10040000041F00F0CDFBD0F800C0C5B1E6B105F186
:100410000B0020F00703AB423CBF002070BD2068FA
:10042000984238BFDCF8042013D3C11A08292FD30F
:10043000E01840F8041B2360FFF7B8FF28E03046BF
:10044000FFF7B4FF002070BD2846BDE87040FFF7FD
:100450007EBF002A18BFA2423CBF94465268F8D320
:100460000119914216D111680844984212D3C11A59
:1004700008293CBF2060506808D35168E0184160EB
:10048000216812681144C91A01602360CCF8040085
:10049000201D70BD181FFFF75AFF050007D0216807
:1004A0000A1F211D00F0B4FA201DFFF77FFF284628
:1004B00070BD00000A46014900F08CBE000000201B
:1004C0001CB50C46064B7B4469460090204600F064
:1004D0004AFE04460020694600F058FE20461CBD36
:1004E000C30C00007CB51D4616460C00009001D0E0
:1004F0002044401E074B7B442A4669460190304603
:1005000000F031FE05461CB10020694600F03EFEB9
:1005100028467CBD9D0C00000FB4044910B503AA09
:10052000029800F057FE10BC5DF814FB000000209C
:100530000FB41CB5084B06AA7B4469460090059889
:1005400000F011FE04460020694600F01FFE204620
:100550001CBC5DF814FB0000510C000070B5044693
:1005600085690068C10601D5302600E02026C00755
:1005700007D070BDD4E9012130469047206A401C65
:1005800020626D1EF6D570BD70B504468569007891
:10059000C00707D170BDD4E9012120209047206A0F
:1005A000401C20626D1EF6D570BD70B50C46054628
:1005B000012A05D02878800600D5EA69002302E0E8
:1005C000012305E05B1C934202D2E05C0028F9D1D4
:1005D000A869E618C01AA861286A18442862284643
:1005E000FFF7BCFF04E0D5E9012114F8010B9047A7
:1005F000B442F8D32846FFF7C7FF70BD2DE9F0419C
:100600000646002410687529314616A510D000F062
:1006100019FB002802DA404213A507E031688A0777
:1006200001D512A502E0490704D511A5012401E076
:1006300000F011FB00210A2206F1240709E0B0FBBB
:10064000F2FCB0FBF2F302FB1C0030307854184689
:10065000491C0028F3D123462A463046BDE8F04124
:1006600000F002BB000000002D0000002B00000085
:1006700020000000F0B40D460188090502D5214C88
:100680007C4402E01F4C7C440E34002100F124061F
:1006900008E002F00F071209E75D42EA03721B0946
:1006A0007754491C52EA0307F3D10278002312075A
:1006B00004D5702D06D009B1022311342246F0BCB6
:1006C00000F0D2BA01231034F8E770B504460D46A5
:1006D0002146106800F0BFFA024629462046BDE8D0
:1006E00070400023C6E7D21D22F00703D3E90023A0
:1006F000C0E70368126843F0200303600823C36166
:100700000023B7E76EE500002DE9F05F8946044657
:100710004FF0000ADFF874B1FB44C0F820A0204677
:10072000E1688847002874D0252806D0D4E9012143
:100730009047206A401C2062F1E700265F46204671
:10074000E16888472028054607DB312D05D2781956
:1007500010F8200C08B10643F1E7B00701D526F0E8
:100760000406C4F81CA00027C4F818A02A2D09D03C
:10077000284606F0DBFE38B304EB8708303DC8F8A6
:10078000185019E059F8041B204604EB87029161C8
:10079000E1688847012F054618D1E069002820DA72
:1007A00026F020061DE0D8F8180000EB800005EBCD
:1007B00040003038C8F818002046E16888470546F0
:1007C00006F0B4FE0028EED1012F0AD02E2D08D15C
:1007D0002046E16888477F1C0546022F46F0200628
:1007E000C4DBA069002803DA404246F00106A0619C
:1007F000F00701D026F010066C2D0BD0682D09D023
:100800004C2D39D06A2D35D0742D35D07A2D33D07A
:1008100016E038E0E1682F4620468847B842054692
:1008200009D16C2F26D04FF48060E1680643204642
:100830008847054604E06C2F1AD04FF480700643B9
:100840000DB3A5F14100192802D8203546F4006601
:100850004A462946204626604E46FFF7E1FC80B115
:1008600001280BD0F61D26F0070000F1080956E715
:100870004020E4E78020D8E70020D6E706F104090D
:100880004DE7284652E7206ABDE8F09FFEE40000ED
:100890000FB400B58DB010A9099000910B904FF0E6
:1008A000FF300A9000200C900648784406900648D5
:1008B00078446A4607900F9909A800F0C9FF0DB067
:1008C0005DF814FBC30F0000DB0F000010B50248F9
:1008D00000F0EEFF004810BD0847002030B5054687
:1008E0000B462A4613F8014B12F8010B08B1A0423F
:1008F000F8D01CB1002802D06D1CF1E7284630BDAD
:1009000040EA0103024630B59B0710D14FF0013495
:1009100000E008C208C91D1B9D4315EAC41FF8D09A
:1009200013F0FF0102F8011B0DD01B0AF8E711F8C4
:10093000013B002B02F8013B05D011F8013B002BD5
:1009400002F8013BF3D130BD10B5431C02E010F8B2
:10095000011B71B18107FAD14FF0013202C88C1A24
:100960008C4314EAC211F9D0C01A0A0603D0C01E83
:1009700010BDC01A10BD0A0401D0801E10BD0902AE
:10098000FCD0401E10BD032A40F2308010F0030C52
:1009900000F0158011F8013BBCF1020F624498BFD2
:1009A00011F801CB00F8013B38BF11F8013BA2F16F
:1009B000040298BF00F801CB38BF00F8013B11F0EA
:1009C000030300F02580083AC0F0088051F8043B8A
:1009D000083A51F804CBA0E80810F5E7121D5CBFF7
:1009E00051F8043B40F8043BAFF30080D20724BF2A
:1009F00011F8013B11F801CB48BF11F8012B24BFBE
:100A000000F8013B00F801CB48BF00F8012B70470C
:100A100010B5203AC0F00B80B1E81850203AA0E899
:100A20001850B1E81850A0E81850BFF4F5AF5FEACD
:100A3000027C24BFB1E81850A0E8185044BF18C980
:100A400018C0BDE810405FEA827C24BF51F8043B27
:100A500040F8043B08BF7047D20728BF31F8023B7B
:100A600048BF11F8012B28BF20F8023B48BF00F80F
:100A7000012B70474FF000020429C0F0128010F0E3
:100A8000030C00F01B80CCF1040CBCF1020F18BF6A
:100A900000F8012BA8BF20F8022BA1EB0C0100F0FD
:100AA0000DB85FEAC17C24BF00F8012B00F8012BD0
:100AB00048BF00F8012B70474FF0000200B5134605
:100AC00094469646203922BFA0E80C50A0E80C506E
:100AD000B1F12001BFF4F7AF090728BFA0E80C501F
:100AE00048BF0CC05DF804EB890028BF40F8042B18
:100AF00008BF704748BF20F8022B11F0804F18BF85
:100B000000F8012B704700004FF0013C50F8042B17
:100B100051F8043B9A4221D1A2EB0C03934313EA10
:100B2000CC1317D150F8042B51F8043B9A4215D13D
:100B3000A2EB0C03934313EACC130BD150F8042B14
:100B400051F8043B9A4209D1A2EB0C03934313EAF8
:100B5000CC13DBD04FF00000704700BFD01A01BAB1
:100B6000B1FA81F101F0180122FA01F0CB40C1F194
:100B70002001DBB2C0B2C01A2CFA01F3D11A9143A2
:100B800011EAC311E6D1704770477047704770474C
:100B900010B500F0CBFE001D10BD00BF0591000098
:100BA00000487047404700207047704770477047C3
:100BB00038B504460A4600206946AFF30080002895
:100BC00008BF38BD02460099204600F0B7FE01205C
:100BD00038BD012001F03ABBF8B5AFF300800546FF
:100BE00000200C46102000BF0646A819A0420DD9CF
:100BF000324669460020AFF30080070008BF01F0CD
:100C000025FB0098A04218BF0546C419FFF7C8FF8E
:100C100005600746F01D20F007004619284600F041
:100C20000AF8B44208BFF8BDA21B31463868BDE8D7
:100C3000F84000F083BE00210160C0E90110704758
:100C40001020704709684A0501D540B27047C905B0
:100C5000FCD500B2704709684A0501D5C0B270479B
:100C6000C905FCD580B270472DE9F0470D4699467D
:100C70009246044600F124080168880604D5E0691C
:100C800021F01001216000E00120A84201DD471B96
:100C900000E00027A1697A1902EB0900081AA06197
:100CA0002078C00602D42046FFF758FC002608E052
:100CB000D4E901211AF806009047206A401C761CEE
:100CC00020624E45F4DB2078C0060AD52046FFF7A7
:100CD00045FC06E0D4E9012130209047206A401C01
:100CE0002062381EA7F10107F4DC07E0D4E90121F6
:100CF00018F805009047206A401C2062281EA5F1C4
:100D00000105F3DC2046FFF73FFC2078000602D502
:100D10000220BDE8F0870120FBE711680268006A45
:100D2000530501D508700AE0D30501D5088006E017
:100D3000130603D5C217C1E9000200E008600120D4
:100D4000704770472DE9FF4F0C461E464FF0FF37A6
:100D50008BB0D2E90001DDF860800A908A46C1F3C9
:100D60000A5505B93D46002108464FF00000BAF18A
:100D7000000F00F4400005DA00EB80004FF4400162
:100D800001EA50004FEA9059B9F1010F00DDB94670
:100D90000A9850EA4A000ED044F61050A5F2FF35EA
:100DA00045432F14B8F1000F1ED07542291E1EDDD9
:100DB000C9F100021CE0B8F1010F4FF0000001D0B2
:100DC000302103E0F24305E02154401CB042FBDB3C
:100DD00030460022002121540B99C1F80880C1E956
:100DE00000200FB0BDE8F08FBD1B6D1CDEE74A464A
:100DF00000DA694206A801F097F906AB93E807000C
:100E000003AB83E8070050460A9901F0F1FC8DE836
:100E10000700A0F500501F3800900398002D09DD51
:100E200042F21F014A46084403A90390684601F0B4
:100E30007AFF08E0A0F500504A461F3803A9039046
:100E4000684601F098FF8DE807000004000C03D00D
:100E50004FF0FF30410800E01046B8F1000F03D01A
:100E60000022009215461EE0751E05D400F080FD9C
:100E7000303262556D1EF9D5B3460122084302D0C7
:100E800000227F1C04E02078302801D100227F1E40
:100E9000002A099786D01DE0112D07DA00F068FDC1
:100EA000303262556D1C50EA0102F5D1084302D080
:100EB0000098C8B10EE00021681E05E0235C625C6A
:100EC00063542254401E491C8142F7DBAB46A81BE9
:100ED000401E0990002004F80B000B98099AC0F8F6
:100EE0000880C0E9002B7CE711264FF0000859E785
:100EF0002DE9F04F88460446D21D22F0070191B03B
:100F0000D1E90001CDE90A0106F00AFA02460B9880
:100F1000C00F01D02D2007E02068810701D52B20CC
:100F200002E0202101EAC000032A099001D0072A2B
:100F300005DB03464146204600F0E6FE0BE1207843
:100F4000800601D5E06900E00620B8F1650F814612
:100F500006D0B8F1660F18D0B8F1670F70D131E044
:100F60000020B9F1110F009001DB112301E009F11C
:100F700001030AAA01A90CA8FFF7E4FEDDE90C7041
:100F8000002609F10105834647E001204B46009009
:100F90004FF000470AAA01A90CA8FFF7D3FEDDE92C
:100FA0000DB00C995D46002610B909F101000D182D
:100FB000B9EB050003D4C0F1FF3609F10105A5EB3B
:100FC00009002BE0B9F1010F01DA4FF0010900200F
:100FD000B9F1110F0090484601DD112300E00346EE
:100FE0000AAA01A90CA8FFF7ADFEDDE90C704D4679
:100FF00000268346207800070AD4AB4500DA5D4618
:1010000001A8012D04DD411911F8011C302907D078
:101010004F4502DA17F1040F04DA012082460FE08F
:101020006D1EEEE7002F02DCED1B3E4403E0781C52
:10103000A84200DD7D1CB81B00F1010A4FF00047FB
:101040002078000703D4AA4501DB4FF0FF3A0021C6
:10105000B7F1004F0DF143088DF8431024D0022062
:101060002B23002F01DA7F422D230A21021EA0F13B
:10107000010000DC5FB197FBF1FC97FBF1F201FB93
:101080001C7C17460CF1300C08F801CDEEE7A8F1F6
:10109000010003702188090501D5452100E0652183
:1010A000A0F1010800F8011C09980FA9A1EB08079D
:1010B000FF1D00B10120411901EBEA70A16938441C
:1010C000081A401EA0612078C00602D42046FFF70F
:1010D00045FA099828B1D4E901219047206A401CBB
:1010E00020622078C00622D52046FFF737FA1EE09E
:1010F000002E04DBB34502DD01A8805D00E0302056
:10110000D4E901219047206A401C2062761CAAF194
:1011100001005FEA000A0AD100F008FCC06801681B
:10112000405CD4E901219047206A401C2062281EBF
:10113000A5F10105DCDC07E0D4E9012118F8010B79
:101140009047206A401C2062381EA7F10107F3DC9B
:101150002046FFF719FA032011B043E601694A1C43
:1011600002610878704700B58FB0CDE901310021E8
:10117000059105497944CDE9031011466846FFF70A
:10118000C3FA0FB000BD0000E5FFFFFF0A6802F8D8
:10119000010B0A607047D1E900239A4202D2531C26
:1011A0000B601070704710B5436913B1AFF3008046
:1011B00001E0FFF7FAF9012010BD127800F12401D7
:1011C0000A7000224A700122EDE711684FF0FF32E9
:1011D000E9E70000074B70B50D467B44FFF7C3FFFE
:1011E0000446284601F00EF810B14FF0FF3070BDF4
:1011F000204670BD0B6D00002DE9FF5F15468A4645
:101200000446DFF8AC80F8440027D8E900103E46D9
:10121000CDE9001010E03AF816106A4602A800F076
:10122000F5FF411C07D02178890603D5E2693918FA
:1012300091420DD80744761C2078800602D5E069DB
:10124000B84205DDAE42E6DB3AF816000028E2D1EE
:10125000A069C01BA0612046FFF780F9D8E9001003
:10126000CDE90010002017E03AF818106A4602A8ED
:1012700000F0CCFFB0F1FF3F81460BD000250DF10F
:10128000080B05E0D4E901211BF8050090476D1C0F
:101290004D45F7D308F10100B0428046E4DB206AF7
:1012A000384420622046FFF76FF9BDE8FF9F000039
:1012B00022DA00002DE9F0418046D21D22F007021B
:1012C0000025D2E90002F52915A614D0011E72F1FD
:1012D000000106DA0023D0EB030063EB020211A643
:1012E00008E0D8F800108B0701D50FA602E04907E7
:1012F00001D50EA601251146002408F1240704E0BB
:1013000000F036FB30323A55641C50EA0102F7D146
:101310002B46324621464046BDE8F041FFF7A4BCCB
:10132000000000002D0000002B0000002000000045
:1013300030B4002100F1240408E002F00705D208CF
:10134000303542EA4372DB086554491C52EA030512
:10135000F3D10468002310A2250708D504F0200467
:101360000C4304D0C46901230CA2641EC46130BCC8
:10137000FFF77ABC10B5044621461068FFF76BFCF6
:1013800002462046BDE810400023D1E7D21D22F0DE
:101390000701D1E90023CBE7000000003000000086
:1013A0002DE9FF4F064689B00878FF2806D0491C72
:1013B0002D2805D000244FF0000908E000200CE0A3
:1013C0000124F8E709EB8903491C00EB430908787D
:1013D000FF28F7D114B1C9F100008146107800252B
:1013E0002C46AA4629462D2801D02B2804D1521C70
:1013F0002D2813D0002082468B461078FF280FD06E
:101400004FF0000C0A21521CA5FB017804FB01815E
:1014100005FB0C11C5194BEB0104EEE70120EAE7CF
:10142000002108464FF00000BAF1000F02D000EB97
:1014300080004008C0F38158B8F1010F01DD4FF082
:10144000FF380C9809EB000755EA040009D04FF06B
:10145000020917F5FA7F0BDA4FEACA70C6E900B045
:1014600012E04FEACA70C6E900B00DB0BDE8F08FD7
:10147000B7F5FA7F0DDDF0487844D0E90010C6E9F1
:10148000001040EACA70706000F054FAC0F8009092
:10149000EBE7391E02DAC8F1000200E0424600DA4A
:1014A000794206A800F040FE06AB93E8070003ABC4
:1014B00083E8070044F23E005BEA040100905846CE
:1014C00004D144F21E012C465D460091210C090412
:1014D000014306D10099240444EA15442D0410392F
:1014E000009104F07F41014306D10099240244EAAF
:1014F00015642D020839009104F07041014306D1B2
:101500000099240144EA15742D01091F009104F08B
:101510004041014306D10099A40044EA9574AD000E
:10152000891E009104F00041084304D100986D1910
:101530006441401E009042466846002FCDE90145B7
:1015400003A902DD01F02BFC01E001F000FCBAF17F
:10155000000F04460D4601D084F0004440F2FF77AE
:1015600024F00040284303D0C4F30A50B84212D1FB
:1015700000F0E0F9C0F80090C4F30A50B8420AD174
:10158000AE487844D0E90010C6E9001004F00041EC
:101590000843706069E7C6E9005466E72DE9FF4F2C
:1015A0001F464FF0000A4FF0FF38454691B0D7E98B
:1015B0000146CDF83CA000F0B9F9C0680168405C74
:1015C0001090B96912986D1C8847396A814688471E
:1015D0000028F6D1B9F1FF3F0AD0002E24F4D064E0
:1015E00011DDB9F12B0F08D0B9F12D0F0BD102E0AD
:1015F000404615B03AE744F48064B96912986D1C0E
:101600008847761E8146600504A901D52D2000E09B
:101610002B20002E01F1010B0DF130088DF8100088
:101620003FDDB9F1690F08D0B9F1490F05D0B9F123
:101630006E0F02D0B9F14E0F1CD13B4601A80095A8
:1016400080E85002DDE912126FF0020008F017FF87
:10165000C11CCED10EE0B96912986D1C8847814635
:101660001398761E44F4007405600F98401C002EF9
:101670000F9016DDB9F1300FEDD0B9F1780F02D02F
:10168000B9F1580F0DD10F9801280AD13B46CDE989
:101690000054DDE91212001F029608F0EEFEC11C94
:1016A000A7D1109989453ED144F0800406E01399F2
:1016B000681CAAF1010A44F400740860B9696D1C41
:1016C0001298761E884730288146F0D02BE010997A
:1016D000894505D1200603D4761E44F0800418E025
:1016E000484605F023FF08B3761E0DF123018B4514
:1016F00044F4007408D2A9F130000BF8010B200665
:1017000007D5AAF1010003E0200602D40AF1010086
:101710008246A00502D51399681C0860B969129821
:101720006D1C88478146002ED1DC53E0002E51DD30
:10173000B9F1650F02D0B9F1450F4BD1A00549D5DC
:10174000B9696D1C1298761E24F440748847002EE7
:1017500081460CDD2B2804D0B9F12D0F07D144F4BC
:101760008074B96912986D1C8847761E8146E00521
:1017700001D52D2100E02B2108F8011BCDF80080B8
:1017800021E0761E0DF13901884544F400740CD235
:10179000A9F1300010F0FF0088F8000002D1009994
:1017A000884509D908F1010806E0E00501D524487B
:1017B00001E042F20F708246B96912986D1C8847A9
:1017C000814613980560002E04DD484605F0AEFE04
:1017D0000028D6D1F96912988847FF2053468BF824
:1017E000000088F8000000200A900B9004AA0CA9C1
:1017F0000AA8FFF7D5FDA00502D46FF00100F8E6B6
:1018000014F0240F0AD0E00714D13868DDE90A1279
:10181000031D3B600068C0E900120BE00AA968469E
:1018200005F01EFEE00705D13868009A011D3960F9
:10183000006802602846DCE670D9000066D8000027
:10184000F1D8FFFF02681144137801601846704711
:10185000D1600549794451610449794411620021FC
:101860001161114600F0A6BAEDFFFFFF9D010000D7
:10187000426842B1016811F8013B23B1521EC0E930
:101880000012184670470121C160881E70474268E7
:101890005AB1C368016843B983688B4205D0491EB9
:1018A000521CC0E90012002070474FF0FF30704713
:1018B00010B5044600F03AF8D0E90212106810445E
:1018C00044F8100B5068104444F80C0C9068104415
:1018D00044F8080C8868084444F8040CC8680844B4
:1018E000206008690844606048690844A06088690D
:1018F0000844E060C86908442061086A08446061DF
:1019000008782076487860768878A076C878E0767F
:1019100008792077487960778879A077C879E07767
:1019200010BD00000048704738470020004870474D
:101930005847002000487047384700200346406859
:101940008C46002818BF88423CBF03464068F8D345
:1019500018681844884207D00CF1030020F00700F3
:10196000001D411A521A0146081D0A60FEF71EBDED
:1019700030B5B0F10A024FEA900E71F100034EEA61
:10198000817EB0EB0E0061EB91014FEA101E4EEA32
:10199000017E10EB0E0041EB11114FEA102E4EEAC2
:1019A000016E10EB0E0041EB11214FEA104E4EEA92
:1019B000014E10EB0E0041EB1141401841F10001C6
:1019C0004FEAD00040EA41704FEAD10110EB8005A8
:1019D0004FEA810444EA907444EB01046D1944EB2E
:1019E0000404521BA3414FF0000348BF0A3200D544
:1019F00030BD401C41F1000130BD10B50446FFF779
:101A0000C7F80068005D00F0010010BD2DE9F04F3F
:101A100004460D46D21D22F0070089B0D0E9009798
:101A20004846394605F07CFC0246F80F01D02D23CC
:101A300007E02068810701D52B2302E0202101EA7D
:101A4000C0038DF820300BB1012000E00020032AF4
:101A5000824601D0072A04DB2946204600F054F9CB
:101A60003FE12078800601D40D2500E0E569C7F349
:101A70000A560D2D49DA00214FEA175B08464FF050
:101A80000000002F00F4400007DA00EB80004FF464
:101A9000400100EBD07001EA60008115012901DDF1
:101AA0004FF0FF3100224FEA850CBCF1180F06D32E
:101AB0001346ACF118004FF08052C24003E04FF4DF
:101AC000801323FA0CF30CF10C0CBCF1200F04D39F
:101AD000ACF1200C09FA0CF001E007FA0CF0002937
:101AE0004FF0004801DD18B90FE00ED140450CD38E
:101AF00019EB02095F4121B9404502D19F4329EA10
:101B00000209BBEB175F00D0761C2088000502D5C8
:101B10007B48784402E07A487844193808AA302390
:101B200002F80A30037C0AF10101002E0AF1020AD0
:101B300053546A4602DC4FF0300101E04FF03101AE
:101B40004FF001088DF8001002D0A6F2FF3603E036
:101B500059EA470100D06B4E002D02DC21780907BD
:101B600004D54FF002082E218DF80110C446002143
:101B70000BE0C7F303433F01C35C491C6D1E02F831
:101B80000830052908F1010801DA002DF1DC0021F7
:101B90000CE000EB1973491C1B786D1E082902F834
:101BA00008304FEA091908F1010801DA002DF0DCCC
:101BB00021688B0602D516E0A8F10108E04505DD95
:101BC00002EB080313F8013C302BF5D0B8F1000FFD
:101BD00009DD02EB080313F8013C2E2B03D10907A2
:101BE00001D4A8F10108002D05DD3E2102F80810FE
:101BF0006D1E08F10108407C002E02F8080008F173
:101C0000010804DA2D20764202F8080002E02B20B9
:101C100002F808000A214FF47A70864208F10108A0
:101C20000BDB96FBF0F3303302F8083096FBF0F351
:101C300008F1010800FB136601E0642E0CDB642050
:101C400096FBF0F3303302F8083096FBF0F308F11E
:101C5000010800FB136601E00A2E06DB96FBF1F09B
:101C6000303002F8080008F1010896FBF1F001FBA2
:101C70001060303002F80800A16908F1010808EB93
:101C8000050202EB0A00081AA0612078C00602D4FF
:101C90002046FEF763FC216A08AE01EB0A002062D1
:101CA00004E0D4E9012116F8010B9047BAF1010ACA
:101CB000F7D22078C00602D52046FEF74FFC6E46CC
:101CC00009E016F8010B3E280FD0D4E90121904716
:101CD000206A401C2062B8F10108F2D22046FEF7CB
:101CE00053FC09B00320BDE8F08F206A284420622D
:101CF00003E0D4E90121302090476D1EEBD3F8E7D3
:101D000031D1000002FCFFFF2DE9F0411F460446DF
:101D100003260168072A01F4006004DB08B116A558
:101D200005E016A503E008B115A500E015A521F012
:101D300010002060A069C01EA0610FB1401EA0610C
:101D40002046FEF70BFC4FB1D4E9012138469047FD
:101D5000206A401C2062C01C206206E0206AFAE76C
:101D6000D4E9012115F8010B9047761EF8D22046E0
:101D7000FEF70AFCBDE8F0814E414E006E616E0038
:101D8000494E4600696E660010B5436913B1AFF362
:101D9000008001E0FFF730FA012010BD128800F149
:101DA000240182840022C2840122EDE711684FF0F1
:101DB000FF32E9E72DE9F34F4FF0000A0C46564693
:101DC0008DB001200C9001F10C000B9062690B9812
:101DD00001219047051E2DD0252D2CD0216A884742
:101DE000C0B162690B9801219047216A8847002899
:101DF000F7D16269411E0B98904700E0761CA169FB
:101E00000D988847216A88470028F7D1E1690D9825
:101E10008847DBE7A1690D988847A842074601D1AA
:101E2000761CD3E7E1690D9888477F1C02D1BAF18F
:101E3000000F6FD06BE162690B9800273D46394671
:101E400090472A2804D162690B9801219047012507
:101E5000DFF8D08262690B9801219047A0F1300130
:101E60000A290AD24745E5DC07EB870100EB410769
:101E7000303FDFD445F01005ECE7E90601D46FF000
:101E800000476C280AD04C2814D0682815D06A283E
:101E90000DD074281CD07A281AD01DE062690B98E6
:101EA000012190476C2802D045F0040514E045F06C
:101EB00002050DE045F020050AE062690B9801215A
:101EC0009047682802D045F0080505E045F4006514
:101ED00062690B9801219047C4E9015765283DD0FC
:101EE00019DC58287AD00CDC452837D004DC2528AA
:101EF00026D041289ED131E046282FD0472899D1BD
:101F00002CE05B2877D0612828D063287CD0642817
:101F100023D15AE0F6E06F2848D008DC66281DD0AF
:101F200067281BD0692821D06E2816D127E0702899
:101F300045D0732868D0752847D078280DD14DE05A
:101F4000A1690D988847252805463FF469AFE169E6
:101F50000D9888476D1C3FF46AAFD8E00D99234671
:101F60006A466FF0010008F086FAC5E045F04000CF
:101F700023464FF000026060A80736D43EE0E80731
:101F80007FF447AF2068011D21600068290501D555
:101F900006701BE7290701D5068017E7A90703D5B7
:101FA000F117C0E9006111E706600FE745F0400056
:101FB00023464FF008026060A80716D41EE040F6E2
:101FC0000E0125EA0100606016E045F0400023465E
:101FD0004FF00A026060A80707D40FE045F0400008
:101FE0006060A80708D5234610220D996FF0010004
:101FF000AFF3008080E007E0102223460D996FF0D8
:102000000100AFF3008077E04FF0000963284F46EE
:10201000C8464B46CB4602D05B2806D038E0E806DF
:1020200001D40120A060012732E06269D4F80CB02D
:102030000B98012190475E2807D14FF001094946CE
:102040006269D4F80CB00B989047216939B9002126
:102050000A4603AB43F82120491C0829FADBD8B310
:10206000216949B308F1010862690B980121904781
:102070005D28F4D1B9F1000F09D0002003A951F86F
:102080002020D24341F82020401C0828F7DB03AB76
:102090002069002820794FEA40701ED05B46224616
:1020A000CDF80080CDE901970D9900286FF001006F
:1020B00020DAAFF300801FE0C11703AA00EBD16163
:1020C0004B1121F01F0102EB8302411A136801201A
:1020D000884003431360C7E719E00D9922460028A2
:1020E0006FF00100009702DAAFF3008004E0AFF375
:1020F000008001E0AFF3008000280ADA401C06D11E
:102100000C9820B14FF0FF300FB0BDE8F08F504673
:10211000FAE7E90701D10AF1010A064400200C9010
:1021200054E60000CCCCCC0C2DE9F0478146164695
:102130008AB0334878440DC88DE80D0030487844A3
:10214000801C03AC0DC884E80D0041F69B300844A8
:10215000372190FBF1F290FBF1F5A5F1800501FB31
:1021600012041B3C02D56442012000E00020DFF88D
:1021700090A080460027FA44AAF1BE0A0DE0E007CD
:1021800009D03246684607EB47010AEB810100F0AF
:10219000F2FD8DE8070064107F1C002CEFD1184F72
:1021A0007F44AC3F18E0E80714D007EB04100DF1B2
:1021B000180A90E80E008AE80E00C068F04201D1CB
:1021C00098190890324606A903A800F0D4FD03AB85
:1021D00083E807006D10641C002DE4D13246694687
:1021E000B8F1000F03A802D000F09DFD01E000F05F
:1021F000C2FDC9E90001C9F808200AB0BDE8F087AE
:10220000A0CB0000007B00F08000704770B5164640
:102210000C460546FEF7BCFC036893F80101012853
:1022200006D0FF2C0FD8185D68B101202C7070BD4E
:10223000D3F807013246214603F207130344284628
:10224000BDE8704018474FF0FF3070BD10B500F08A
:102250006DFABDE8104000F064BA7546FFF762FB06
:10226000AE4605006946534620F00700854618B083
:1022700020B5FEF75BF8BDE820404FF000064FF0B8
:1022800000074FF000084FF0000B21F00701AC46AB
:10229000ACE8C009ACE8C009ACE8C009ACE8C009CA
:1022A0008D46704710B5FFF745FB006810BD10B5AF
:1022B0000446FFF73FFB046010BD00002DE9FF4F0F
:1022C0001F464FF03C0987B04FF00042DDE9141083
:1022D00001F10108DDF858A002EA40500390002007
:1022E00005908346054604460490B969461E089841
:1022F0008847AAF1010A0290BAF1000F3BDD02986B
:102300002E2815D0102100F04CFA00282EDB4FF0BB
:10231000010B0599014317D0B9F1000F0BDB4A46B9
:10232000C11700F02BFA05430C43A9F1040905E09D
:10233000012004900BE008B145F001050120059053
:10234000049820B9361D02E0049800B1361FB9691F
:10235000089808F101088847BBF1000FAAF1010AAB
:102360000290C9D00999C1F80080C5E70298702889
:1023700008D0502806D0F96908988847BBF1000FAB
:1023800014D04FE0002002900120BBF1000F049018
:1023900009D0B969089808F101088847AAF101092C
:1023A000B9F1000F07DCF969089888476FF0010060
:1023B0000BB0BDE8F08F2B2804D02D280CD14FF0A6
:1023C000FF300490B969089808F101088847A9F11D
:1023D0000109B9F1000FE6DD411CE4D00A2100F04B
:1023E000E0F90028DFDB029908F1010801EB810127
:1023F00000EB41000290B969089888470A2100F073
:10240000D0F9099AA9F10109B9F1000FC2F80080C9
:1024100001DD0028E7DAF9690898884704990298ED
:1024200000FB016655EA040004D004F040410900B5
:1024300002D006E0039898E0A40044EA9574AD0049
:10244000B61E04F00041080002D16D196441761EE9
:10245000159810F0240F03D04FF00B095C4803E0EF
:102460004FF028096FF07D008246564507DAAAEB47
:1024700006018944B9F1410F01DD4FF04109012006
:102480000021A9F1010200F079F9024628400B462B
:102490002140084301D0012100E00021501E02919B
:1024A00043F1FF3128402140084301D0012000E0E2
:1024B00000200299834651EA0B014FD000210846C3
:1024C0004FF00000039900F4400039B100EB8000A8
:1024D0004FF4400100EBD07001EA60008015012844
:1024E00002DD4FF0FF3000E013D0401C36D00298E0
:1024F00060B3BBF1000F0CD14A460120002100F06F
:102500003DF928402140084301D0012000E000208F
:10251000E0B101204A46002100F030F9034640199D
:102520000A4661412D1A8C4111D3B9F1400F09DDE2
:10253000159810F0240F02D0AAF1340603E0AAF196
:10254000170600E0761C00254FF0004406E05B1EF5
:1025500042F1FF3220EA030521EA0204CAF1010038
:10256000B04206DA1B49039808430190002000900E
:102570000EE0039AC4F3D321E80A0A43164940EA5D
:1025800044500A433146CDE90002684604F0C4FFD6
:10259000159810F0240F0BD01598C00715D1386886
:1025A000DDE90012031D3B600068C0E900120CE089
:1025B00002A8694604F054FF1598C00705D1386891
:1025C000029A011D3960006802604046F0E6000092
:1025D00002FCFFFF0000F07F0000F03F2DE9FF4FFD
:1025E00092461D4685B04FF00041DDE9124BDDE912
:1025F00014727F1E01EA4B50414940F0FF4940EA06
:102600000108002122F020004928049102D04E2820
:1026100028D04CE03BA0012607C88DE80700A96937
:102620000698641C88477F1E014606D41DF80600E4
:1026300018B121F0200181420BD0E9690698884742
:10264000032E34D0082E32D06FF0010009B0BDE85F
:10265000F08F761C032E01D0082EE0D1601CCAF842
:102660000000DCE7A9690698641C88477F1E2AD40D
:1026700020F02000412826D1A9690698641C8847CB
:102680007F1E20D420F020004E281CD1A969069876
:10269000641C88477F1E48F4002849F48009CAF862
:1026A000004001D4282806D0E969069888475FEAE7
:1026B000CB7012D022E0A9690698641C88477F1E5F
:1026C00001D4002803DAE96906988847BCE729287D
:1026D000F1D1641CCAF80040E9E71BF0240F07D0D1
:1026E00028680499031D2B600068C0E9001805E004
:1026F0002868021D2A600068C0F800902046A5E7FF
:102700000000F07F494E46494E49545900000000F0
:1027100010B50446AFF300802046BDE81040FDF739
:10272000EDBD002801D004F008BF704710B50128A6
:1027300005D0002103A000F042F8012010BD09A13E
:10274000F8E7000053494752544D454D3A204F7524
:1027500074206F662068656170206D656D6F727999
:10276000000000003A2048656170206D656D6F7251
:102770007920636F7272757074656400B2F1200322
:102780000AD5C2F1200301FA02F120FA03F300FA9C
:1027900002F041EA0301704700FA03F14FF0000034
:1027A00070473A2800D2303820F02002412A01D365
:1027B000A2F13700884201D34FF0FF30704770B567
:1027C00005460C460A2000E06D1C04F0B8FE35B149
:1027D00028780028F8D102E0641C04F0B0FE14B19F
:1027E00020780028F8D1BDE870400A2004F0A7BE88
:1027F0005FEA400C08BF91F0000F4FEA8C234FEACC
:10280000C12243EA51514FEA1C5018BF00F5F04075
:102810004FEA300018BF41F000415FEA6C5C00F005
:102820002980BCF1FF3F08BF40F080407047130C87
:1028300006BF12044FF0100C4FF0000C130E04BF33
:1028400012020CF1080C130F04BF12010CF1040C5E
:10285000930F04BF92000CF1020CD30F04BF52007F
:102860000CF1010C11464FF00002A0F11F00A0EB8B
:102870000C00704711F0004F08BF704731F0004165
:102880003FF4D5AF0B0C06BF09044FF0100C4FF00E
:10289000000C0B0E04BF09020CF1080C0B0F04BF57
:1028A00009010CF1040C8B0F04BF89000CF1020C20
:1028B000CB0F04BF49000CF1010CCCF12003A0EBBD
:1028C0000C0022FA03F302FA0CF241EA030100F1D0
:1028D0000100704720F07F4C80EA030023F07F471F
:1028E000ACEB070303F57C5300F0004003F1FF035A
:1028F0002DE980494FEA154B09B44FEA144325EA04
:102900000B4E24EA03480FF2042606EB132749086E
:102910003E785FEA320203FB0667C7F5000707FB54
:1029200006F64FEA54374FEAD64606F1020607FB91
:10293000066CCCF1005C4FEA1C472CEA074C07FB05
:1029400006F40CFB06F504EB15464FEA961634BF69
:1029500000204FF000404FEAD13706FB07FC4FEA5A
:102960001C4C0CFB0BF7D21B03FB0CF761EB0701B4
:102970000CFB0EF7B0EB074072EB17420CFB08F7AD
:1029800034BFA2EB0742B2EB074261EB17414FEABB
:102990000C444FEA910706FB07FC4FEA1C4C0CFB6A
:1029A0000BF7B0EBC74072EB573203FB0CF734BFA9
:1029B000A2EBC742B2EBC74261EB57310CFB0EF7FB
:1029C000B0EBC70072EB57720CFB08F734BFA2EBF9
:1029D000C702B2EBC70261EB5771039F4FEA8161F7
:1029E00041EA921104EBCC044FEAD1374FEA8262FC
:1029F00006FB07FC42EA90124FEA80604FEA1C4C4B
:102A00000CFB0BF7D21B03FB0CF761EB07010CFB74
:102A10000EF7B0EB074072EB17420CFB08F734BF20
:102A2000A2EB0742B2EB074261EB17414FEA8C552C
:102A30004FEA910704EB9C2406FB07FC4FEA1C4C71
:102A40000CFB0BF7B0EBC74072EB573203FB0CF7F4
:102A500034BFA2EBC742B2EBC74261EB57310CFB6C
:102A60000EF7B0EBC70072EB57720CFB08F734BFE0
:102A7000A2EBC702B2EBC70261EB577115EB4C2515
:102A80004FEA816141EA92114FEA82624FEAD137FF
:102A900042EA901206FB07FC44F100044FEA806012
:102AA0004FEA1C4C0CFB0BF7D21B03FB0CF761EB42
:102AB00007010CFB0EF7B0EB074072EB17420CFB63
:102AC00008F734BFA2EB0742B2EB074261EB1741B4
:102AD00015EB1C154FEA813141EA92414FEA8232EF
:102AE00042EA90424FEA80304FEA0C7644F100040B
:102AF00048EA03434EEA0B484FF0000EB2EB080CD5
:102B000071EB030724BF624639464EEB0E0E4FF0C1
:102B1000000B0018524149414BEB0B0BB2EB080C78
:102B200071EB03077BF1000B24BF624639464EEB85
:102B30000E0E4FF0000B0018524149414BEB0B0BAE
:102B4000B2EB080C71EB03077BF1000B24BF62466C
:102B500039464EEB0E0E51EA020718BF46F0010649
:102B600016EB0E7655F1000254F1000103D5BDE8D5
:102B70008901BDE80088BDE88901BDE80048B619B3
:102B8000524141EB0101A3F10103704780807F7E38
:102B90007D7C7B7A797877767675747372717170D3
:102BA0006F6E6E6D6C6C6B6A6A6968686766666585
:102BB0006464636362616160605F5F5E5E5D5D5C13
:102BC0005C5B5B5A5A595958585757565655555584
:102BD0005454535352525251515050504F4F4F4EE4
:102BE0004E4D4D4D4C4C4C4B4B4B4A4A4A49494932
:102BF0004848484747474746464645454544444474
:102C000044434343434242424241414146EA06462D
:102C1000A3F570534FEA164646EA42564FEAD222CF
:102C200042EA415210B54FEAD121A3F1010300F06D
:102C300017F820F0004000F1010C00F0004701EB14
:102C400000501146BCF5006F40EA070000D210BDED
:102C500002484FF0000140EA070010BD0000F07F7D
:102C6000002B26D4770021D01CB54FEA370703B4D8
:102C70004FF010004FF010014FF000000FBCBDE806
:102C800010400BF1010BBBF1010F08BF5FEA170702
:102C900022BF12F1010211F101014FF0004143F195
:102CA000000300F0004043EA00007047F9D35708E2
:102CB000DAE746EA064613F1400F4FEA16461FDDF3
:102CC00013F1200FDFBF16430A46002120335B4279
:102CD000C8D0C3F1200746EA064602FA07F74FEAD2
:102CE000164646EA0706C3F1200722FA03F201FA64
:102CF00007F721FA03F14FF0000342EA0702B1E7B8
:102D000046EA020646EA06464FEA164646EA010643
:102D1000BCBF46EA0646360C4FF000034FF00002F7
:102D20004FF000019EE72DE9C048934630B491E88A
:102D3000380007C831EA400C48BF34EA430C03D5D9
:102D4000FFF7C8FDFFF78CFFF0BCBDE800882DE958
:102D5000C048934630B491E8380007C831EA400CC7
:102D600048BF34EA430C03D5FFF7B4FDFFF74EFF2D
:102D7000F0BCBDE800882DE9C048934630B491E826
:102D8000380007C810F0804F08BF13F0804F03D100
:102D900000F019F8FFF764FFF0BCBDE800882DE9EA
:102DA000C048934630B491E8380007C810F0804F0F
:102DB00008BF13F0804F03D100F005F8FFF726FF9E
:102DC000F0BCBDE8008820F07F4780EA030023F0D4
:102DD0007F4C07EB0C03A3F57C5300F00040A3F1FC
:102DE000FE0392F0000F00F0B38095F0000F00F0AA
:102DF00077802DE901494FEA11404FEA144621EA54
:102E0000004800FB06FC24EA064708FB06F607FB21
:102E100008F800FB07F718EB06484CEB164C4FEA96
:102E2000124B18EB07484FEA15464CEB174022EAC5
:102E30000B4E0BFB06FC25EA06470EFB06F607FBCE
:102E40000EFE0BFB07F71EEB064E4CEB164C4FF03D
:102E500000061EEB074E4CEB174B18EB0B0840F12E
:102E6000000018EB0E0B58EB000840F100008F1A21
:102E70004FF000013CBFC943661B14BFB5EB040C07
:102E800000213CBFC943F61B4FEA17444EEA8E0EA1
:102E900027EA04454FEA1C4704FB07622CEA074C6B
:102EA00005FB07F70CFB05F604FB0CFC16EB0746CD
:102EB00042EB174216EB0C4642EB1C421BEB06069C
:102EC00058EB0202414146EA9E0601D5BDE8018960
:102ED000B619524141EB0101A3F10103BDE801899B
:102EE0004FEA14454FEA114724EA054621EA074C08
:102EF00005FB07F406FB07F70CFB06F105FB0CFCD2
:102F000011EB074144EB17444FEA124711EB0C4118
:102F100044EB1C4422EA074C05FB07F206FB07F7CB
:102F20000CFB06F605FB0CFC16EB074642EB1742C2
:102F300016EB0C4642EB1C456A1854F1000148BFE1
:102F40007047B619524141EB0101A3F101037047EB
:102F500095F0000F37D04FEA11424FEA144721EAAB
:102F6000024624EA074C02FB07F106FB07F70CFBBD
:102F700006F402FB0CFC14EB074441EB17414FEA4B
:102F8000154714EB0C4441EB1C4125EA074C02FBAE
:102F900007F506FB07F70CFB06F602FB0CFC16EB2D
:102FA000074645EB174516EB0C4645EB1C4212193C
:102FB00051F1000148BF7047B619524141EB010180
:102FC000A3F1010370474FEA14454FEA114724EA81
:102FD000054621EA074C05FB07F106FB07F70CFB4A
:102FE00006F24FF0000605FB0CFC12EB074241EB2A
:102FF000174112EB0C4251EB1C4148BF704792182D
:1030000041EB0101A3F1010370472DE9F04F0546A3
:1030100000210B460C462A46002700264FF0130CD1
:1030200028782D2802D10127521C03E028782B286C
:1030300000D1521C002628E010782C2820D01078CF
:1030400020281DD0107850B9012F05D100215842F9
:1030500061EB0401BDE8F08F18462146FAE74FF016
:103060000A0800211846A0FB089B04FB08B803FBD4
:10307000018A1078A0F1300119EB01034AEBE174E9
:1030800002F1010206F10100C6B26645D4DB184622
:103090002146DFE730B5CC1000F1200353F824308F
:1030A0004C07E50E0F24AC40A343CD1000F12004E3
:1030B00044F82530CC1000F1200353F824304C079D
:1030C000E40E02FA04F42343CD1000F1200444F886
:1030D000253030BD2DE9F0470C46DDE90867DFF803
:1030E000FC80D8F800804FF40039A0EB09094FEAC2
:1030F000992A4FF0010909FA0AF948EA0908DFF8A4
:10310000DC90C9F80080002100258C4600BF60E0FB
:103110004FF0010808FA01F504EA050CAC4557D157
:10312000D0F800804FEA410A4FF0030909FA0AF982
:1031300028EA0908C0F80080D0F800804FEA410969
:1031400002FA09F948EA0908C0F80080012A01D00A
:10315000022A27D1D0F808804FEA410A4FF003092C
:1031600009FA0AF928EA0908C0F80880D0F80880A6
:103170004FEA410906FA09F948EA0908C0F8088047
:10318000D0F804804FF0010909FA01F928EA09088A
:10319000C0F80480D0F8048003FA01F948EA09086D
:1031A000C0F80480D0F80C804FEA410A4FF00309C0
:1031B00009FA0AF928EA0908C0F80C80D0F80C804E
:1031C0004FEA410907FA09F948EA0908C0F80C80F2
:1031D000491C10299CD3BDE8F0870000303802401C
:1031E0000FB4F8B504460D4609A8009029462046BC
:1031F000009B089AFDF776F90646002000903046BD
:10320000F8BC5DF814FB000070B5044600260D48BC
:1032100005880D48006818B1204603F00BF80FE050
:103220000848408845430021084602F021FE02F08C
:10323000EFFF002602E005490C80761CAE42FAD36F
:1032400070BD00006A2F0020782F00200000086069
:1032500010B504465C4884715C48006850B1204653
:1032600003F046F85948C08A574908805748008BF0
:10327000488010BD002C51D1F020534908804FF4F4
:10328000A07048800846808849F24131884205D0C4
:103290004D48808845F21031884214D12C204A498B
:1032A00008812A2048812B2088810846808845F2A1
:1032B0001031884206D14FF4A070434908804FF482
:1032C000F07048807BE04048808845F21051884289
:1032D00010D14FF430503C4908814FF428504881B8
:1032E0004FF42C5088814FF4F07008804FF44870F0
:1032F000488064E03448808841F6631188425ED19A
:103300002C20314908812B2048812A2088814FF4C4
:10331000F07008804FF44870488050E04FF4A0707F
:1033200029490880F02048800846808849F24131C8
:10333000884205D02448808845F21031884207D160
:103340002C20214908812A2048812B20888129E0CE
:103350001D48808845F21051884210D14FF43050FA
:10336000194908814FF4285048814FF42C50888126
:103370004FF4487008804FF4F070488012E0124813
:10338000808841F6631188420CD12C200E490881B7
:103390002A2048812B2088814FF4487008804FF400
:1033A000F07048800848808845F21031884206D184
:1033B0004FF4F070044908804FF4A070488000205A
:1033C00002F01CFC00BF54E76A2F0020782F002079
:1033D0002DE9FF4F85B081468A4600200490039076
:1033E0000798A0EB09050898A0EB0A06CDF808900D
:1033F000CDF804A0002D01DD012705E00DB900275F
:1034000002E04FF0FF376D42002E02DD4FF0010861
:1034100006E016B94FF0000802E04FF0FF387642A0
:10342000B54201DD2C4600E034464FF0000B21E0B0
:10343000019A91B2029A90B200F022F804982844BE
:1034400004900398304403900498A04205DD04984A
:10345000001B04900298384402900398A04205DDB6
:103460000398001B03900198404401900BF1010068
:103470001FFA80FB601C8345DADD09B0BDE8F08FE0
:1034800070B504460D460A48006830B1094829461F
:103490000268204602F042FF09E02946204602F079
:1034A000E7FC02F0B5FE034800880349088070BDC0
:1034B000782F0020640000200000086070B50446EA
:1034C0000D4616464348006828B132462946204634
:1034D00002F024FF70BD4048808849F241318842A3
:1034E00005D03D48808845F21031884214D13A49D0
:1034F000488902F081FE201202F072FEE0B202F072
:103500006FFE3549888902F077FE281202F068FEC6
:10351000E8B202F065FE54E02F48808845F2105171
:10352000884220D12C49488902F066FE201202F020
:1035300057FE29494989491C88B202F05DFEE0B274
:1035400002F04EFE2449888902F056FE281202F04D
:1035500047FE21498989491C88B202F04DFEE8B234
:1035600002F03EFE2DE01C48808841F6631188423F
:1035700027D11948807920B917480088401E001BC0
:1035800084B21549488902F037FE201202F028FE65
:10359000E0B202F025FE201202F022FEE0B202F0BC
:1035A0001FFE0D49888902F027FE281202F018FE3E
:1035B000E8B202F015FE281202F012FEE8B202F0A4
:1035C0000FFE0548008905490880891C0E8000BF50
:1035D00080E70000782F00206A2F0020FEFF0760A0
:1035E0001CB503F045FAFE4988800846808818B16A
:1035F00002F068FF02F076BAFA48006840F0020074
:10360000F84908600846006840F018000860F5486E
:103610000830006840F00100F249083108600120DC
:10362000022100230246CDE900102021EE48FFF7D9
:1036300051FD0120032100230222CDE900104EF2AA
:10364000B371EA48FFF746FD01200321002302225F
:10365000CDE900104FF68071E548FFF73BFD0C22E5
:103660000021E248FFF716FD0C220121DF48FFF799
:1036700011FD0C220421DD48FFF70CFD0C22052171
:10368000DA48FFF707FD0C220721D848FFF702FDB3
:103690000C220821D548FFF7FDFC0C220921D34854
:1036A000FFF7F8FC0C220A21D048FFF7F3FC0C22AC
:1036B0000D21CE48FFF7EEFC0C220E21CB48FFF780
:1036C000E9FC0C220F21C948FFF7E4FC0C2207217A
:1036D000C748FFF7DFFC0C220821C548FFF7DAFCDA
:1036E0000C220921C248FFF7D5FC0C220A21C04850
:1036F000FFF7D0FC0C220B21BD48FFF7CBFC0C22BE
:103700001146BB48FFF7C6FC0C220D21B848FFF755
:10371000C1FC0C220E21B648FFF7BCFC0C220F2185
:10372000B348FFF7B7FC00204FF020410860486025
:10373000B04908604FF02040006840F480504FF0DE
:10374000204108600846006840F480400860084650
:10375000006840F01000086008464068486008466D
:10376000406840F00F0048600846406840F48C40D4
:103770004860A0480068C1F804010846D0F8040178
:1037800040F00F00C1F804010846D0F8040140F4ED
:103790007060C1F804010846006840F0010008604C
:1037A000322004F0F3FAD32002F026FD02F0ECF907
:1037B0008B49888002F0E8F98949888002F0E4F9B1
:1037C00087498880084680884FF6FF7101EA00200B
:1037D0008349888002F0D8F9814989880843804963
:1037E00088800846808849F24131884278D0D420C8
:1037F00002F002FD02F0C8F97949888002F0C4F9AC
:103800007749888002F0C0F9754988800846808829
:103810004FF6FF7101EA00207149888002F0B4F987
:103820006F49898808436E4988800846808845F238
:103830001031884254D04FF45A4002F0DDFC02F0BF
:10384000A3F9674988804FF45B4002F0D5FC02F091
:103850009BF963498880084680884FF6FF7101EA2A
:1038600000205F4988804FF45C4002F0C5FC02F004
:103870008BF95B49898808435949888008468088C4
:10388000B0F5004F02D145F210508880544880882E
:1038900045F21051884223D0A12002F0ADFC02F085
:1038A00073F94F49888002F06FF94D4988800846C6
:1038B00080884FF6FF7101EA00204949888002F0B4
:1038C00063F94749898808434549888008468088C4
:1038D00045F26171884203D141F663104049888006
:1038E0003F48818844A0FCF717FE3D48808849F294
:1038F0004131884272D1CF2002F07EFC002002F0DC
:103900006FFCC12002F06CFC302002F069FCED205D
:1039100002F072FC642002F063FC032002F060FC01
:10392000122002F05DFC812002F05AFCE82002F037
:1039300063FC852002F054FC102002F051FC7A2038
:1039400002F04EFCCB2002F057FC392002F048FC7C
:103950002C2002F045FC002002F042FC342002F052
:103960003FFC022002F03CFCF72002F045FC202046
:1039700002F036FCEA2002F03FFC002002F030FCAE
:10398000002002F02DFCC02002F036FC1B2002F0CB
:1039900027FCC12002F030FC012002F021FCC520F0
:1039A00002F02AFC302002F01BFC302002F018FC50
:1039B000C72002F021FCB72002F012FC362002F0F2
:1039C0001BFC482002F00CFC3A2002F015FC5520AC
:1039D00002F006FCB12002F00FFC15E0B7E0000099
:1039E0006A2F00203038024000040240000C0240E0
:1039F00000100240040100A0204C43442049443AF6
:103A000025780D0A00000000002002F0E9FB1A20D2
:103A100002F0E6FBB62002F0EFFB0A2002F0E0FB2A
:103A2000A22002F0DDFBF22002F0E6FB002002F013
:103A3000D7FB262002F0E0FB012002F0D1FBE020C2
:103A400002F0DAFB0F2002F0CBFB2A2002F0C8FBC9
:103A5000282002F0C5FB082002F0C2FB0E2002F075
:103A6000BFFB082002F0BCFB542002F0B9FBA920E8
:103A700002F0B6FB432002F0B3FB0A2002F0B0FBD9
:103A80000F2002F0ADFB002002F0AAFB002002F0A4
:103A9000A7FB002002F0A4FB002002F0A1FBE12024
:103AA00002F0AAFB002002F09BFB152002F098FB1D
:103AB000172002F095FB072002F092FB112002F084
:103AC0008FFB062002F08CFB2B2002F089FB562096
:103AD00002F086FB3C2002F083FB052002F080FB15
:103AE000102002F07DFB0F2002F07AFB3F2002F055
:103AF00077FB3F2002F074FB0F2002F071FB2B20BC
:103B000002F07AFB002002F06BFB002002F068FB61
:103B1000012002F065FB3F2002F062FB2A2002F048
:103B20006BFB002002F05CFB002002F059FB002040
:103B300002F056FBEF2002F053FB112002F05CFB79
:103B4000782004F023F9292002F056FB52E5FE48C4
:103B5000808845F21031884240F07C87ED2002F0E9
:103B60004BFB012002F03CFBFE2002F039FBEE2073
:103B700002F042FBDE2002F033FB212002F030FB9A
:103B8000F12002F039FB012002F02AFBDF2002F0D5
:103B900033FB102002F024FBC42002F02DFB8F2009
:103BA00002F01EFBC62002F027FB002002F018FBEB
:103BB000E22002F015FBE22002F012FBE22002F00C
:103BC0000FFBBF2002F018FBAA2002F009FBB02077
:103BD00002F012FB0D2002F003FB002002F000FBBC
:103BE0000D2002F0FDFA002002F0FAFA112002F096
:103BF000F7FA002002F0F4FA192002F0F1FA00209E
:103C000002F0EEFA212002F0EBFA002002F0E8FACE
:103C10002D2002F0E5FA002002F0E2FA3D2002F049
:103C2000DFFA002002F0DCFA5D2002F0D9FA002071
:103C300002F0D6FA5D2002F0D3FA002002F0D0FAAA
:103C4000B12002F0D9FA802002F0CAFA002002F076
:103C5000C7FA8B2002F0C4FA002002F0C1FA9620C5
:103C600002F0BEFA002002F0BBFAB22002F0C4FA61
:103C7000002002F0B5FA002002F0B2FA022002F0B1
:103C8000AFFA002002F0ACFA032002F0A9FA0020FB
:103C900002F0A6FAB32002F0AFFA002002F0A0FA78
:103CA000002002F09DFA002002F09AFA002002F0B3
:103CB00097FA002002F094FA002002F091FA002016
:103CC00002F08EFA002002F08BFA002002F088FA4F
:103CD000002002F085FA002002F082FA002002F0B3
:103CE0007FFA002002F07CFA002002F079FA00202E
:103CF00002F076FA002002F073FA002002F070FA67
:103D0000002002F06DFA002002F06AFA002002F0B2
:103D100067FA002002F064FA002002F061FA002045
:103D200002F05EFA002002F05BFAB42002F064FABE
:103D30008B2002F055FA002002F052FA962002F091
:103D40004FFA002002F04CFAA12002F049FA0020BC
:103D500002F046FAB52002F04FFA022002F040FAD3
:103D6000002002F03DFA032002F03AFA002002F0AF
:103D700037FA042002F034FA002002F031FAB620BB
:103D800002F03AFA002002F02BFA002002F028FAA2
:103D9000B72002F031FA002002F022FA002002F0EF
:103DA0001FFA3F2002F01CFA002002F019FA5E20F0
:103DB00002F016FA002002F013FA642002F010FA62
:103DC000002002F00DFA8C2002F00AFA002002F026
:103DD00007FAAC2002F004FA002002F001FADC201D
:103DE00002F0FEF9002002F0FBF9702002F0F8F971
:103DF000002002F0F5F9902002F0F2F9002002F024
:103E0000EFF9EB2002F0ECF9002002F0E9F9DC20F8
:103E100002F0E6F9002002F0E3F9B82002F0ECF934
:103E2000002002F0DDF9002002F0DAF9002002F0B3
:103E3000D7F9002002F0D4F9002002F0D1F90020D7
:103E400002F0CEF9002002F0CBF9002002F0C8F910
:103E5000BA2002F0D1F9242002F0C2F9002002F0C9
:103E6000BFF9002002F0BCF9002002F0B9F9C1202E
:103E700002F0C2F9202002F0B3F9002002F0B0F9FC
:103E8000542002F0ADF9002002F0AAF9FF2002F060
:103E9000A7F9002002F0A4F9C22002F0ADF90A202F
:103EA00002F09EF9002002F09BF9042002F098F93C
:103EB000002002F095F9C32002F09EF93C2002F0A8
:103EC0008FF9002002F08CF93A2002F089F90020E5
:103ED00002F086F9392002F083F9002002F080F91F
:103EE000372002F07DF9002002F07AF93C2002F040
:103EF00077F9002002F074F9362002F071F9002001
:103F000002F06EF9322002F06BF9002002F068F93D
:103F10002F2002F065F9002002F062F92C2002F057
:103F20005FF9002002F05CF9292002F059F9002025
:103F300002F056F9262002F053F9002002F050F961
:103F4000242002F04DF901E06A2F0020002002F049
:103F500047F9242002F044F9002002F041F923201F
:103F600002F03EF9002002F03BF93C2002F038F963
:103F7000002002F035F9362002F032F9002002F07C
:103F80002FF9322002F02CF9002002F029F92F201D
:103F900002F026F9002002F023F92C2002F020F98B
:103FA000002002F01DF9292002F01AF9002002F089
:103FB00017F9262002F014F9002002F011F924204C
:103FC00002F00EF9002002F00BF9242002F008F9AB
:103FD000002002F005F9232002F002F9002002F08F
:103FE000FFF8C42002F008F9622002F0F9F800207E
:103FF00002F0F6F8052002F0F3F8002002F0F0F8E5
:10400000842002F0EDF8002002F0EAF8F02002F03F
:10401000E7F8002002F0E4F8182002F0E1F80020B0
:1040200002F0DEF8A42002F0DBF8002002F0D8F85D
:10403000182002F0D5F8002002F0D2F8502002F04B
:10404000CFF8002002F0CCF80C2002F0C9F80020D4
:1040500002F0C6F8172002F0C3F8002002F0C0F802
:10406000952002F0BDF8002002F0BAF8F32002F02B
:10407000B7F8002002F0B4F8E62002F0B1F8002012
:1040800002F0AEF8C52002F0B7F8322002F0A8F82E
:10409000002002F0A5F8442002F0A2F8002002F06F
:1040A0009FF8652002F09CF8002002F099F8762035
:1040B00002F096F8002002F093F8882002F090F8C1
:1040C000002002F08DF8C62002F096F8202002F0C1
:1040D00087F8002002F084F8172002F081F8002011
:1040E00002F07EF8012002F07BF8002002F078F860
:1040F000C72002F081F8002002F072F8002002F0E0
:104100006FF8002002F06CF8002002F069F8C82077
:1041100002F072F8002002F063F8002002F060F86C
:10412000002002F05DF8002002F05AF8C92002F0E9
:1041300063F8002002F054F8002002F051F800204B
:1041400002F04EF8002002F04BF8002002F048F890
:10415000002002F045F8002002F042F8002002F0B2
:104160003FF8002002F03CF8002002F039F800206F
:1041700002F036F8002002F033F8002002F030F8A8
:10418000002002F02DF8002002F02AF8002002F0B2
:1041900027F8E02002F030F8162002F021F8002085
:1041A00002F01EF81C2002F01BF8002002F018F8A4
:1041B000212002F015F8002002F012F8362002F05B
:1041C0000FF8002002F00CF8462002F009F8002059
:1041D00002F006F8522002F003F8002002F000F886
:1041E000642001F0FDFF002001F0FAFF7A2001F0C9
:1041F000F7FF002001F0F4FF8B2001F0F1FF002019
:1042000001F0EEFF992001F0EBFF002001F0E8FF44
:10421000A82001F0E5FF002001F0E2FFB92001F045
:10422000DFFF002001F0DCFFC42001F0D9FF0020F7
:1042300001F0D6FFCA2001F0D3FF002001F0D0FF2B
:10424000D22001F0CDFF002001F0CAFFD92001F0FB
:10425000C7FF002001F0C4FFE02001F0C1FF0020F3
:1042600001F0BEFFF32001F0BBFF002001F0B8FF1A
:10427000E12001F0C1FF162001F0B2FF002001F0A3
:10428000AFFF1C2001F0ACFF002001F0A9FF2220AD
:1042900001F0A6FF002001F0A3FF362001F0A0FFEF
:1042A000002001F09DFF452001F09AFF002001F061
:1042B00097FF522001F094FF002001F091FF64204D
:1042C00001F08EFF002001F08BFF7A2001F088FFC3
:1042D000002001F085FF8B2001F082FF002001F01B
:1042E0007FFF992001F07CFF002001F079FFA820DA
:1042F00001F076FF002001F073FFB92001F070FF9C
:10430000002001F06DFFC42001F06AFF002001F0E1
:1043100067FFCA2001F064FF002001F061FFD22096
:1043200001F05EFF002001F05BFFD82001F058FF94
:10433000002001F055FFE02001F052FF002001F0C5
:104340004FFFF32001F04CFF002001F049FFE22075
:1043500001F052FF052001F043FF002001F040FF73
:104360000B2001F03DFF002001F03AFF1B2001F07F
:1043700037FF002001F034FF342001F031FF00202E
:1043800001F02EFF442001F02BFF002001F028FF58
:104390004F2001F025FF002001F022FF612001F0F5
:1043A0001FFF002001F01CFF792001F019FF002001
:1043B00001F016FF882001F013FF002001F010FF2C
:1043C000972001F00DFF002001F00AFFA62001F068
:1043D00007FF002001F004FFB72001F001FF0020DB
:1043E00001F0FEFEC22001F0FBFE002001F0F8FE0D
:1043F000C72001F0F5FE002001F0F2FED12001F00F
:10440000EFFE002001F0ECFED62001F0E9FE0020D6
:1044100001F0E6FEDD2001F0E3FE002001F0E0FE09
:10442000F32001F0DDFE002001F0DAFEE32001F0D0
:10443000E3FE052001F0D4FE002001F0D1FE0A20A9
:1044400001F0CEFE002001F0CBFE1C2001F0C8FEE2
:10445000002001F0C5FE332001F0C2FE002001F073
:10446000BFFE442001F0BCFE002001F0B9FE502048
:1044700001F0B6FE002001F0B3FE622001F0B0FEB4
:10448000002001F0ADFE782001F0AAFE002001F02E
:10449000A7FE882001F0A4FE002001F0A1FE9720D5
:1044A00001F09EFE002001F09BFEA62001F098FE88
:1044B000002001F095FEB72001F092FE002001F0EF
:1044C0008FFEC22001F08CFE002001F089FEC72083
:1044D00001F086FE002001F083FED12001F080FE75
:1044E000002001F07DFED52001F07AFE002001F0D1
:1044F00077FEDD2001F074FE002001F071FEF32054
:1045000001F06EFE002001F06BFEE42001F074FE6D
:10451000012001F065FE002001F062FE012001F0A3
:104520005FFE002001F05CFE022001F059FE002039
:1045300001F056FE2A2001F053FE002001F050FE4B
:104540003C2001F04DFE002001F04AFE4B2001F01E
:1045500047FE002001F044FE5D2001F041FE0020F6
:1045600001F03EFE742001F03BFE002001F038FE19
:10457000842001F035FE002001F032FE932001F08E
:104580002FFE002001F02CFEA22001F029FE0020C9
:1045900001F026FEB32001F023FE002001F020FEF2
:1045A000BE2001F01DFE002001F01AFEC42001F023
:1045B00017FE002001F014FECD2001F011FE0020B6
:1045C00001F00EFED32001F00BFE002001F008FEEA
:1045D000DD2001F005FE002001F002FEF32001F0D5
:1045E000FFFD002001F0FCFDE52001F005FE0020AC
:1045F00001F0F6FD002001F0F3FD002001F0F0FDD8
:10460000002001F0EDFD022001F0EAFD002001F0A4
:10461000E7FD292001F0E4FD002001F0E1FD3C2050
:1046200001F0DEFD002001F0DBFD4B2001F0D8FDA4
:10463000002001F0D5FD5D2001F0D2FD002001F049
:10464000CFFD742001F0CCFD002001F0C9FD8420D5
:1046500001F0C6FD002001F0C3FD932001F0C0FD74
:10466000002001F0BDFDA22001F0BAFD002001F004
:10467000B7FDB32001F0B4FD002001F0B1FDBE2074
:1046800001F0AEFD002001F0ABFDC42001F0A8FD5B
:10469000002001F0A5FDCD2001F0A2FD002001F0D9
:1046A0009FFDD32001F09CFD002001F099FDDC204E
:1046B00001F096FD002001F093FDF32001F090FD44
:1046C000002001F08DFDE62001F096FD112001F0A3
:1046D00087FD002001F084FD342001F081FD0020E1
:1046E00001F07EFD562001F07BFD002001F078FDF9
:1046F000762001F075FD002001F072FD772001F0B9
:104700006FFD002001F06CFD662001F069FD0020C6
:1047100001F066FD882001F063FD002001F060FDDE
:10472000992001F05DFD002001F05AFDBB2001F051
:1047300057FD002001F054FD992001F051FD0020AB
:1047400001F04EFD662001F04BFD002001F048FD18
:10475000552001F045FD002001F042FD552001F0FB
:104760003FFD002001F03CFD452001F039FD002017
:1047700001F036FD432001F033FD002001F030FD53
:10478000442001F02DFD002001F02AFDE72001F07A
:1047900033FD322001F024FD002001F021FD5520E1
:1047A00001F01EFD002001F01BFD762001F018FD38
:1047B000002001F015FD662001F012FD002001F03F
:1047C0000FFD672001F00CFD002001F009FD6720BE
:1047D00001F006FD002001F003FD872001F000FD3F
:1047E000002001F0FDFC992001F0FAFC002001F00E
:1047F000F7FCBB2001F0F4FC002001F0F1FC992053
:1048000001F0EEFC002001F0EBFC772001F0E8FC69
:10481000002001F0E5FC442001F0E2FC002001F062
:10482000DFFC562001F0DCFC002001F0D9FC232045
:1048300001F0D6FC002001F0D3FC332001F0D0FCC5
:10484000002001F0CDFC452001F0CAFC002001F061
:10485000C7FCE82001F0D0FC002001F0C1FC0020E2
:1048600001F0BEFC992001F0BBFC002001F0B8FC77
:10487000872001F0B5FC002001F0B2FC882001F097
:10488000AFFC002001F0ACFC772001F0A9FC002077
:1048900001F0A6FC662001F0A3FC002001F0A0FCC2
:1048A000882001F09DFC002001F09AFCAA2001F074
:1048B00097FC002001F094FCBB2001F091FC00204B
:1048C00001F08EFC992001F08BFC002001F088FCA7
:1048D000662001F085FC002001F082FC552001F0EB
:1048E0007FFC002001F07CFC552001F079FC0020C9
:1048F00001F076FC442001F073FC002001F070FC14
:10490000442001F06DFC002001F06AFC552001F00C
:1049100067FC002001F064FCE92001F06DFCAA2096
:1049200001F05EFC002001F05BFC002001F058FC6F
:10493000002001F055FC002001F05EFCAA2001F0EF
:104940004FFCCF2001F058FC002001F049FC002072
:1049500001F046FC002001F043FC002001F040FC87
:10496000002001F03DFC002001F03AFC002001F0A5
:1049700037FC002001F034FC002001F031FC002065
:1049800001F02EFC002001F02BFC002001F028FC9F
:10499000002001F025FC002001F022FC002001F0A5
:1049A0001FFC002001F01CFC002001F019FCF0208D
:1049B00001F022FC002001F013FC502001F010FC5B
:1049C000002001F00DFC002001F00AFC002001F0A5
:1049D00007FCF32001F010FC002001F001FCF9209D
:1049E00001F00AFC062001F0FBFB102001F0F8FBAF
:1049F000292001F0F5FB002001F0F2FB3A2001F044
:104A0000FBFB552001F0ECFB112001F0F5FB6420CD
:104A100003F0BCF9292001F0EFFB352001F0ECFB9D
:104A2000002001F0DDFB512001F0E6FBFF2001F04A
:104A3000D7FB532001F0E0FB2C2001F0D1FB5520E7
:104A400001F0DAFB822001F0CBFB2C2001F0D4FB3B
:104A500001F048B8FE48808845F2105188427DD167
:104A600055214FF4704001F0DDFBAA214FF2010007
:104A700001F0D8FB52214FF2020001F0D3FB0821D4
:104A80004FF2030001F0CEFB01214FF2040001F0D0
:104A9000C9FB0D214FF4304001F0C4FB0D214BF256
:104AA000010001F0BFFB0D214BF2020001F0BAFB47
:104AB00034214FF4364001F0B5FB34214BF2016054
:104AC00001F0B0FB34214BF2026001F0ABFB0D2191
:104AD0004FF4314001F0A6FB0D214BF2011001F023
:104AE000A1FB0D214BF2021001F09CFB34214FF48D
:104AF000374001F097FB34214BF2017001F092FB3B
:104B000034214BF2027001F08DFB00214FF4324052
:104B100001F088FB00214BF2012001F083FB002112
:104B20004BF2022001F07EFB24214FF4384001F0CB
:104B300079FB24214BF6010001F074FB24214BF694
:104B4000020001F06FFB01214FF43F4001F06AFBCE
:104B50000F214FF4334001F065FB00E0FDE30F212E
:104B60004BF2013001F05EFB0F214BF2023001F0FD
:104B700059FB34214FF4394001F054FB34214BF6FA
:104B8000011001F04FFB34214BF6021001F04AFBFB
:104B900008214FF4354001F045FB08214BF201504C
:104BA00001F040FB08214BF2025001F03BFB0321D6
:104BB0004FF4424001F036FB24214FF43A4001F01B
:104BC00031FB24214BF6012001F02CFB24214BF674
:104BD000022001F027FB00214FF43C4001F022FBB2
:104BE00078214BF6014001F01DFB00214BF60240FD
:104BF00001F018FB00214FF43D4001F013FB782138
:104C00004BF6015001F00EFB00214BF6025001F073
:104C100009FB00214FF43E4001F004FB64214BF6F8
:104C2000016001F0FFFA00214FF4514001F0FAFA5F
:104C300033214DF2011001F0F5FA00214DF202107E
:104C400001F0F0FA34214DF2031001F0EBFA0021EB
:104C50004DF2041001F0E6FA3A214DF2051001F090
:104C6000E1FA00214DF2061001F0DCFA4A214DF282
:104C7000071001F0D7FA00214DF2081001F0D2FA26
:104C80005C214DF2091001F0CDFA00214DF20A101D
:104C900001F0C8FA81214DF20B1001F0C3FA002196
:104CA0004DF20C1001F0BEFAA6214DF20D1001F0EC
:104CB000B9FA00214DF20E1001F0B4FAE5214DF2DF
:104CC0000F1001F0AFFA01214DF2101001F0AAFA15
:104CD00013214DF2111001F0A5FA01214DF212102D
:104CE00001F0A0FA54214DF2131001F09BFA0121BA
:104CF0004DF2141001F096FA82214DF2151001F0D8
:104D000091FA01214DF2161001F08CFACA214DF2F0
:104D1000171001F087FA02214DF2181001F082FA03
:104D200000214DF2191001F07DFA02214DF21A1006
:104D300001F078FA01214DF21B1001F073FA022103
:104D40004DF21C1001F06EFA34214DF21D1001F0ED
:104D500069FA02214DF21E1001F064FA67214DF24A
:104D60001F1001F05FFA02214DF2201001F05AFAF3
:104D700084214DF2211001F055FA02214DF222104A
:104D800001F050FAA4214DF2231001F04BFA022158
:104D90004DF2241001F046FAB7214DF2251001F032
:104DA00041FA02214DF2261001F03CFACF214DF2DA
:104DB000271001F037FA02214DF2281001F032FAE3
:104DC000DE214DF2291001F02DFA02214DF22A10B8
:104DD00001F028FAF2214DF22B1001F023FA022102
:104DE0004DF22C1001F01EFAFE214DF22D1001F0B3
:104DF00019FA03214DF22E1001F014FA10214DF290
:104E00002F1001F00FFA03214DF2301001F00AFAD1
:104E100033214DF2311001F005FA03214DF2321029
:104E200001F000FA6D214DF2331001F0FBF9002181
:104E30004FF4524001F0F6F933214DF2012001F018
:104E4000F1F900214DF2022001F0ECF9342101E0EA
:104E50006A2F00204DF2032001F0E4F900214DF209
:104E6000042001F0DFF93A214DF2052001F0DAF9D2
:104E700000214DF2062001F0D5F94A214DF207201C
:104E800001F0D0F900214DF2082001F0CBF95C21AE
:104E90004DF2092001F0C6F900214DF20A2001F07F
:104EA000C1F981214DF20B2001F0BCF900214DF236
:104EB0000C2001F0B7F9A6214DF20D2001F0B2F956
:104EC00000214DF20E2001F0ADF9E5214DF20F2049
:104ED00001F0A8F901214DF2102001F0A3F91321EE
:104EE0004DF2112001F09EF901214DF2122001F046
:104EF00099F954214DF2132001F094F901214DF25A
:104F0000142001F08FF982214DF2152001F08AF969
:104F100001214DF2162001F085F9CA214DF217202A
:104F200001F080F902214DF2182001F07BF90021F7
:104F30004DF2192001F076F902214DF21A2001F00C
:104F400071F901214DF21B2001F06CF902214DF2A3
:104F50001C2001F067F934214DF21D2001F062F9A7
:104F600002214DF21E2001F05DF967214DF21F2054
:104F700001F058F902214DF2202001F053F984216B
:104F80004DF2212001F04EF902214DF2222001F0D4
:104F900049F9A4214DF2232001F044F902214DF2F8
:104FA000242001F03FF9B7214DF2252001F03AF914
:104FB00002214DF2262001F035F9CF214DF22720B4
:104FC00001F030F902214DF2282001F02BF9DE2109
:104FD0004DF2292001F026F902214DF22A2001F09C
:104FE00021F9F2214DF22B2001F01CF902214DF2A2
:104FF0002C2001F017F9FE214DF22D2001F012F9BD
:1050000003214DF22E2001F00DF910214DF22F2039
:1050100001F008F903214DF2302001F003F93321AA
:105020004DF2312001F0FEF803214DF2322001F063
:10503000F9F86D214DF2332001F0F4F800214FF41E
:10504000534001F0EFF833214DF2013001F0EAF85E
:1050500000214DF2023001F0E5F834214DF2033029
:1050600001F0E0F800214DF2043001F0DBF83A21C4
:105070004DF2053001F0D6F800214DF2063001F076
:10508000D1F84A214DF2073001F0CCF800214DF261
:10509000083001F0C7F85C214DF2093001F0C2F888
:1050A00000214DF20A3001F0BDF881214DF20B30A4
:1050B00001F0B8F800214DF20C3001F0B3F8A62150
:1050C0004DF20D3001F0AEF800214DF20E3001F03E
:1050D000A9F8E5214DF20F3001F0A4F801214DF2BD
:1050E000103001F09FF813214DF2113001F09AF8C1
:1050F00001214DF2123001F095F854214DF2133098
:1051000001F090F801214DF2143001F08BF882216A
:105110004DF2153001F086F801214DF2163001F004
:1051200081F8CA214DF2173001F07CF802214DF2CE
:10513000183001F077F800214DF2193001F072F8C3
:1051400002214DF21A3001F06DF801214DF21B30B1
:1051500001F068F802214DF21C3001F063F83421AF
:105160004DF21D3001F05EF802214DF21E3001F0CB
:1051700059F867214DF21F3001F054F802214DF229
:10518000203001F04FF884214DF2213001F04AF82F
:1051900002214DF2223001F045F8A4214DF22330D6
:1051A00001F040F802214DF2243001F03BF8B72124
:1051B0004DF2253001F036F802214DF2263001F093
:1051C00031F8CF214DF2273001F02CF802214DF2B9
:1051D000283001F027F8DE214DF2293001F022F8C5
:1051E00002214DF22A3001F01DF8F2214DF22B3050
:1051F00001F018F802214DF22C3001F013F8FE21D5
:105200004DF22D3001F00EF803214DF22E3001F059
:1052100009F810214DF22F3001F004F803214DF26E
:10522000303000F0FFFF33214DF2313000F0FAFF53
:1052300003214DF2323000F0F5FF6D214DF2333095
:1052400000F0F0FF00214FF4544000F0EBFF332159
:105250004DF2014000F0E6FF00214DF2024000F067
:10526000E1FF34214DF2034000F0DCFF00214DF25C
:10527000044000F0D7FF3A214DF2054000F0D2FF84
:1052800000214DF2064000F0CDFF4A214DF20740CB
:1052900000F0C8FF00214DF2084000F0C3FF5C2180
:1052A0004DF2094000F0BEFF00214DF20A4000F02F
:1052B000B9FF81214DF20B4000F0B4FF00214DF207
:1052C0000C4000F0AFFFA6214DF20D4000F0AAFF08
:1052D00000214DF20E4000F0A5FFE5214DF20F40F8
:1052E00000F0A0FF01214DF2104000F09BFF1321C0
:1052F0004DF2114000F096FF01214DF2124000F0F6
:1053000091FF54214DF2134000F08CFF01214DF22A
:10531000144000F087FF82214DF2154000F082FF1B
:1053200001214DF2164000F07DFFCA214DF21740D9
:1053300000F078FF02214DF2184000F073FF0021C9
:105340004DF2194000F06EFF02214DF21A4000F0BC
:1053500069FF01214DF21B4000E005E300F062FF10
:1053600002214DF21C4000F05DFF34214DF21D4042
:1053700000F058FF02214DF21E4000F053FF67215C
:105380004DF21F4000F04EFF02214DF2204000F090
:1053900049FF84214DF2214000F044FF02214DF2EB
:1053A000224000F03FFFA4214DF2234000F03AFFDD
:1053B00002214DF2244000F035FFB7214DF2254087
:1053C00000F030FF02214DF2264000F02BFFCF21EC
:1053D0004DF2274000F026FF02214DF2284000F058
:1053E00021FFDE214DF2294000F01CFF02214DF289
:1053F0002A4000F017FFF2214DF22B4000F012FF7F
:1054000002214DF22C4000F00DFFFE214DF22D4007
:1054100000F008FF03214DF22E4000F003FF1021A1
:105420004DF22F4000F0FEFE03214DF2304000F01F
:10543000F9FE33214DF2314000F0F4FE03214DF22C
:10544000324000F0EFFE6D214DF2334000F0EAFEF5
:1054500000214FF4554000F0E5FE33214DF201509C
:1054600000F0E0FE00214DF2025000F0DBFE34219E
:105470004DF2035000F0D6FE00214DF2045000F032
:10548000D1FE3A214DF2055000F0CCFE00214DF244
:10549000065000F0C7FE4A214DF2075000F0C2FE50
:1054A00000214DF2085000F0BDFE5C214DF2095084
:1054B00000F0B8FE00214DF20A5000F0B3FE812149
:1054C0004DF20B5000F0AEFE00214DF20C5000F0FA
:1054D000A9FEA6214DF20D5000F0A4FE00214DF2D0
:1054E0000E5000F09FFEE5214DF20F5000F09AFEA5
:1054F00001214DF2105000F095FE13214DF2115094
:1055000000F090FE01214DF2125000F08BFE54216C
:105510004DF2135000F086FE01214DF2145000F0C0
:1055200081FE82214DF2155000F07CFE01214DF2EA
:10553000165000F077FECA214DF2175000F072FEAF
:1055400002214DF2185000F06DFE00214DF219506D
:1055500000F068FE02214DF21A5000F063FE0121B6
:105560004DF21B5000F05EFE02214DF21C5000F087
:1055700059FE34214DF21D5000F054FE02214DF22F
:105580001E5000F04FFE67214DF21F5000F04AFE02
:1055900002214DF2205000F045FE84214DF22150B1
:1055A00000F040FE02214DF2225000F03BFEA4210B
:1055B0004DF2235000F036FE02214DF2245000F04F
:1055C00031FEB7214DF2255000F02CFE02214DF2A4
:1055D000265000F027FECF214DF2275000F022FE8A
:1055E00002214DF2285000F01DFEDE214DF229501F
:1055F00000F018FE02214DF22A5000F013FEF221B5
:105600004DF22B5000F00EFE02214DF22C5000F016
:1056100009FEFE214DF22D5000F004FE03214DF253
:105620002E5000F0FFFD10214DF22F5000F0FAFD3A
:1056300003214DF2305000F0F5FD33214DF2315091
:1056400000F0F0FD03214DF2325000F0EBFD6D2132
:105650004DF2335000F0E6FD00214FF4564000F0CB
:10566000E1FD33214DF2016000F0DCFD00214DF23F
:10567000026000F0D7FD34214DF2036000F0D2FD4E
:1056800000214DF2046000F0CDFD3A214DF205609D
:1056900000F0C8FD00214DF2066000F0C3FD4A2174
:1056A0004DF2076000F0BEFD00214DF2086000F0F1
:1056B000B9FD5C214DF2096000F0B4FD00214DF20E
:1056C0000A6000F0AFFD81214DF20B6000F0AAFDF1
:1056D00000214DF20C6000F0A5FDA6214DF20D60F9
:1056E00000F0A0FD00214DF20E6000F09BFDE521D1
:1056F0004DF20F6000F096FD01214DF2106000F0B8
:1057000091FD13214DF2116000F08CFD01214DF24D
:10571000126000F087FD54214DF2136000F082FD0D
:1057200001214DF2146000F07DFD82214DF21560E3
:1057300000F078FD01214DF2166000F073FDCA21E2
:105740004DF2176000F06EFD02214DF2186000F07E
:1057500069FD00214DF2196000F064FD02214DF257
:105760001A6000F05FFD01214DF21B6000F05AFD50
:1057700002214DF21C6000F055FD34214DF21D60F8
:1057800000F050FD02214DF21E6000F04BFD67213C
:105790004DF21F6000F046FD02214DF2206000F046
:1057A00041FD84214DF2216000F03CFD02214DF2CB
:1057B000226000F037FDA4214DF2236000F032FD9D
:1057C00002214DF2246000F02DFDB7214DF225603D
:1057D00000F028FD02214DF2266000F023FDCF21CC
:1057E0004DF2276000F01EFD02214DF2286000F00E
:1057F00019FDDE214DF2296000F014FD02214DF269
:105800002A6000F00FFDF2214DF22B6000F00AFD3E
:1058100002214DF22C6000F005FDFE214DF22D60BD
:1058200000F000FD03214DF22E6000F0FBFC102182
:105830004DF22F6000F0F6FC03214DF2306000F0D5
:10584000F1FC33214DF2316000F0ECFC03214DF20C
:10585000326000F0E7FC6D214DF2336000F0E2FCB5
:1058600055214FF4704000F0DDFCAA214FF20100F9
:1058700000F0D8FC52214FF2020000F0D3FC0821C6
:105880004FF2030000F0CEFC00214FF2040000F0C4
:10589000C9FCCC214FF4314000F0C4FC00214BF294
:1058A000011000F0BFFC05214FF4364000F0BAFCB7
:1058B00070214FF4374000F0B5FC70214BF20170BD
:1058C00000F0B0FC01214FF4384000F0ABFC0321A4
:1058D0004BF6010000F0A6FC03214BF6020000F09D
:1058E000A1FC03214BF6030000F09CFC02214FF4C5
:1058F0003C4000F097FC00214BF6014000F092FC88
:1059000000214BF6024000F08DFCD0214FF44940BD
:1059100000F088FC02214CF6011000F083FC5021BD
:105920004CF6021000F07EFC50214CF6031000F003
:1059300079FC50214CF6041000F074FC00214FF467
:10594000545000F06FFC55214FF4685000F06AFC91
:105950004FF4885000F050FC782002F033FA4FF4F6
:10596000245000F049FCBDE07E48808841F6631178
:105970008842F8D1E22000F03FFC1D2000F030FC0E
:10598000022000F02DFC042000F02AFC642002F02C
:1059900019FAE02000F030FC012000F021FC0A2080
:1059A00002F0F4F9E02000F027FC032000F018FCDE
:1059B0000C2002F0EBF9012000F01EFC0A2002F09E
:1059C000E5F9E62000F018FC2F2000F009FCFF208C
:1059D00000F006FCFF2000F003FCB02000F00CFCFF
:1059E000202000F0FDFB002000F0FAFB032000F077
:1059F000F7FB40F21F3000F0F3FB012000F0F0FB5A
:105A000040F2DF1000F0ECFB002000F0E9FBB420D6
:105A100000F0F2FB042000F0E3FB40F21F4000F036
:105A2000DFFB002000F0DCFB2E2000F0D9FB002083
:105A300000F0D6FB002000F0D3FB002000F0D0FBEC
:105A4000002000F0CDFBB62000F0D6FB022000F0D5
:105A5000C7FB4FF4037000F0C3FB002000F0C0FB55
:105A6000172000F0BDFB152000F0BAFB002000F06D
:105A7000B7FB002000F0B4FBF02000F0BDFB0320DA
:105A800000F0AEFB292000F0B7FBD02000F0B4FB03
:105A9000002000F0A5FBBE2000F0AEFB052000F0CA
:105AA0009FFBFE2000F09CFB012000F099FB0020F2
:105AB00000F096FB002000F093FB002000F090FB2C
:105AC000B82000F099FB032000F08AFB012000F0D1
:105AD00087FBBA2000F090FB012000F081FB6420DE
